:100EEF00011000011100011200010900021300009E
:100B2000E4F5B1F5B2F5B3F5B4F5ACF5AD120E469A
:100B3000E51170FCF512C3E51294047480948050A2
:100B40001B740A2512F8E6FFAD12120EB97F057E5E
:100B5000007D007C00120DAA051280DAE50964010F
:100B6000702D0514E51470020513C3941EE513647B
:100B70008094804002D292C3E514943CE5136480D3
:100B8000948040ACE4F509F513F514C29280A1E419
:080B9000F513F514C2928098E0
:100E460053B3F753B4F753B3EF53B4EFD294D293EB
:100E5600A2AF920075C7AA75C75575910143B240F6
:100E660075C7AA75C755E4F591A20092AF439B01D9
:0A0E7600D2AF75C109D2C6D2C22264
:03003300020A942A
:100A9400C0E0C083C082C0D075D000C000C007AF22
:100AA400BDEF1208F20ACB000B0F600ACF680AD31D
:100AB400800B0F880B0FA00B0FA80B0FB80B0FC0E8
:100AC4000B0FC800000B11D2C48042C28280FEAF5B
:100AD400BCEF64057003750901E5BCB42805751104
:100AE40001802AE5116026E5BC64296016740A2594
:100AF40010F8A6BC0510C3E51094067480948040D9
:100B04000C80007511007510008002D2C2C2C3D0DF
:0C0B140007D000D0D0D082D083D0E032D7
:100EB9008F35ED14601014601514601C240370251F
:100EC900C297D2958004D297C295D2908006D297C4
:100ED900D295C290D2918008D297D295D290C291E0
:060EE900AF3512091822CA
:10091800EF1208F2095F2D096630096D31096F324F
:10092800097633097D34098435098636098D3709F6
:100938009438099B3909BE4109B74309CC4509D305
:100948004609A94909C54C09845309A26409E16EFD
:1009580009DA6F000009E77580004380BF227580BF
:10096800004380C022803A7580004380A4227580AD
:10097800004380B02275800043809922802A7580C8
:1009880000438082227580004380F82275800043EE
:10099800808022758000438090227580004380A16A
:1009A800227580004380F922758000438092227569
:1009B80080004380C62275800043808822758000AD
:1009C8004380C7227580004380862275800043805B
:1009D8008E227580004380A3227580004380AB225D
:100E800053B1BF53B2BF53B17F53B27F7598504334
:100E90008920438780438E1053C4DFAB07AA06A97D
:100EA00005A8047F407E427D0F7C0012083CEF04C1
:090EB000F404F58DD28ED29922D2
:100B98008F188E178D168C1553B1BF53B2BF53B132
:100BA8007F53B27F75985043878053C4F843C4205D
:100BB800AB18AA17A916A8157F407E427D0F7C00A6
:100BC80012083CC374FF9FFF74FF9EFEE49DFDE482
:100BD8009CFC78081208DF8FC6AB18AA17A916A8BC
:100BE800157F407E427D0F7C0012083CC374FF9F36
:090BF800FF8FC543C408D2992205
:070F00003098FDAF99C29883
:010F070022C7
:080F0800C2998F993099FD2276
:100C01008F1C8E1B8D1A8C1953B1FB53B2FB53B33E
:100C1100BF53B4BF75F85075C40853C4DFAB1CAAE9
:100C21001BA91AA8197F407E427D0F7C0012083C47
:100C3100C374FF9FFF74FF9EFEE49DFDE49CFC785E
:100C4100081208DF8FC6AB1CAA1BA91AA8197F407E
:100C51007E427D0F7C0012083CC374FF9FFF8FC54D
:040C610043C408225E
:070F100030F8FDAF9AC2F8B2
:010F170022B7
:080F1800C2F98F9A30F9FD22A5
:100D5C008F248E238D228C21538EF7438901D28CC4
:100D6C00E4FFFEFDFCAB24AA23A922A821C3120890
:100D7C00CE6028758A7E758CFF308DFDC28DE52482
:100D8C0024FFFFE52334FFFEE52234FFFDE521348B
:0E0D9C00FF8F248E238D22F52180C5C28C226C
:100DAA008F388E378D368C35538EF7438901D28C26
:100DBA00E4FFFEFDFCAB38AA37A936A835C31208F2
:100DCA00CE6028758ACA758CFA308DFDC28DE538D9
:100DDA0024FFFFE53734FFFEE53634FFFDE5353401
:0E0DEA00FF8F388E378D36F53580C5C28C22CE
:100DF8008F288E278D268C25538EEF438910D28E0F
:100E0800E4FFFEFDFCAB28AA27A926A825C31208E3
:100E1800CE6028758BEA758DCB308FFDC28FE528A3
:100E280024FFFFE52734FFFEE52634FFFDE52534E2
:0E0E3800FF8F288E278D26F52580C5C28E22BD
:100D0B008F2C8E2B8D2A8C2953C9BF53C9DF43C916
:100D1B0010D2CAE4FFFEFDFCAB2CAA2BA92AA829F2
:100D2B00C31208CE602875CC3075CDF830CFFDC21C
:100D3B00CFE52C24FFFFE52B34FFFEE52A34FFFD26
:100D4B00E52934FF8F2C8E2B8D2AF52980C5C2CA3D
:010D5B002275
:100C65008F308E2F8D2E8C2D75C40743C408E4FF5D
:100C7500FEFDFCAB30AA2FA92EA82DC31208CE600D
:100C85002E75C52C75C6CFE5C45410641070F85385
:100C9500C4EFE53024FFFFE52F34FFFEE52E34FFDA
:100CA500FDE52D34FF8F308E2F8D2EF52D80BF5312
:030CB500C4F7225F
:100CB8008F348E338D328C3175C40743C408E4FFFA
:100CC800FEFDFCAB34AA33A932A831C31208CE60AA
:100CD8002E75C5D875C6FFE5C45410641070F85356
:100CE800C4EFE53424FFFFE53334FFFEE53234FF7B
:100CF800FDE53134FF8F348E338D32F53180BF53AB
:030D0800C4F7220B
:030000000209E80A
:1009E80075C7AA75C75575FD5A75C7AA75C75575D0
:1009F800FDA5787FE4F6D8FD9000007FFF7E03E434
:0C0A0800F0A3DFFCDEFA758180020A4FCB
:100A1400020B20E493A3F8E493A34003F68001F2CD
:100A240008DFF48029E493A3F85407240CC8C333E3
:100A3400C4540F4420C8834004F456800146F6DFB2
:100A4400E4800B0102040810204080900EEFE47E45
:100A5400019360BCA3FF543F30E509541FFEE493A7
:100A6400A360010ECF54C025E060A840B8E493A36E
:100A7400FAE493A3F8E493A3C8C582C8CAC583CA99
:100A8400F0A3C8C582C8CAC583CADFE9DEE780BE51
:010EFF0000F2
:1008000075F008758200EF2FFFEE33FECD33CDCCAF
:1008100033CCC58233C5829BED9AEC99E582984032
:100820000CF582EE9BFEED9AFDEC99FC0FD5F0D60F
:10083000E4CEFBE4CDFAE4CCF9A88222B800C1B939
:100840000059BA002DEC8BF084CFCECDFCE5F0CB77
:10085000F97818EF2FFFEE33FEED33FDEC33FCEBB0
:1008600033FB10D703994004EB99FB0FD8E5E4F96B
:10087000FA227818EF2FFFEE33FEED33FDEC33FC58
:10088000C933C910D7059BE99A4007EC9BFCE99A4C
:10089000F90FD8E0E4C9FAE4CCFB2275F010EF2F91
:1008A000FFEE33FEED33FDCC33CCC833C810D70791
:1008B0009BEC9AE899400AED9BFDEC9AFCE899F8CC
:0E08C0000FD5F0DAE4CDFBE4CCFAE4C8F9225F
:1008CE00EB9FF5F0EA9E42F0E99D42F0E89C45F080
:0108DE0022F7
:1008DF00E8600FECC313FCED13FDEE13FEEF13FFF7
:0308EF00D8F1221B
:1008F200D083D082F8E4937012740193700DA3A395
:1009020093F8740193F5828883E4737402936860A8
:06091200EFA3A3A380DFA8
:00000001FF
