:03000000020DB737
:0C0DB700787FE4F6D8FD758180020DFE07
:100EAC000A526563656976656420737472696E674E
:100EBC003A20002563000A000A4D617374657220A4
:100ECC007374617274656420726561642C2073653F
:100EDC006E64696E673A202563000A53656E646917
:100EEC006E673A202563000A416C6C206461746162
:060EFC002073656E740016
:100FDA00015A00024C04D2C112014E00145C484569
:100FEA004C4C4F2045766F6C757A6E20496E646959
:080FFA006100014B00015913D5
:100F02007F807E257D007C00120E43D2F9120FA055
:100F12003012337BFF7A0E79AC120862E4F55BE59E
:100F22005BC3954E50157BFF7A0E79BF744F255BDC
:100F3200F8E6F53A120862055B80E47BFF7A0E79E7
:100F4200C2120862C2127F2C7E017D007C00120F49
:030F52005580BD0A
:100FA00053B3F753B4F753B3EF53B4EFD294D29390
:100FB000A2AF921375C7AA75C75575910143B24088
:100FC00075C7AA75C755E4F591A21392AF439B016B
:0A0FD000D2AF75C115D2C6D2C222FD
:03003300020CDCE0
:100CDC00C0E0C0F0C083C082C0D075D000C000C0DE
:100CEC0001C002C003C004C005C006C007AFBDEF01
:100CFC00120C4E0D21000D98600D25680D29800DEC
:100D0C0098880D49A00D55A80D66B80D98C00D9882
:100D1C00C800000D9AD2C48075C28280FE75B08066
:100D2C00744F255AF8A6BC055AC3E55A940A748028
:100D3C0094804005D212755A00D2C28051855A4E09
:100D4C00D212755A00D2C280457BFF7A0E79C485C7
:100D5C005C3A120862754B008018E54BC395597BC1
:100D6C00FF501E7A0E79E6745C254BF8E6F53A12C4
:100D7C000862AF4B054B745C2FF8E6F5BCD2C28011
:100D8C000D7A0E79F3120862C2C28002D2C2C2C3BB
:100D9C00D007D006D005D004D003D002D001D000AB
:0B0DAC00D0D0D082D083D0F0D0E03255
:100E43008F268E258D248C2353B1BF53B2BF43B15C
:100E53008053B27F75985043878053C4F843C420AE
:100E6300AB26AA25A924A8237F407E427D0F7C00C0
:100E7300120B98C374FF9FFF74FF9EFEE49DFDE475
:100E83009CFC7808120C3B8FC6AB26AA25A924A884
:100E9300237F407E427D0F7C00120B98C374FF9F1B
:090EA300FF8FC543C408D2992257
:100F55008F268E258D248C23538EF7438901D28CC1
:100F6500E4FFFEFDFCAB26AA25A924A823C3120C89
:100F75002A6025758ACB758CFA308DFDC28DE526E4
:100F850024FFF526E52534FFF525E52434FFF52472
:0B0F9500E52334FFF52380C8C28C2246
:100DC300020F02E493A3F8E493A34003F68001F235
:100DD30008DFF48029E493A3F85407240CC8C33331
:100DE300C4540F4420C8834004F456800146F6DF00
:100DF300E4800B0102040810204080900FDAE47EA7
:100E0300019360BCA3FF543F30E509541FFEE493F4
:100E1300A360010ECF54C025E060A840B8E493A3BB
:100E2300FAE493A3F8E493A3C8C582C8CAC583CAE6
:100E3300F0A3C8C582C8CAC583CADFE9DEE780BE9E
:0110020000ED
:100B5C0075F008758200EF2FFFEE33FECD33CDCC50
:100B6C0033CCC58233C5829BED9AEC99E5829840D3
:100B7C000CF582EE9BFEED9AFDEC99FC0FD5F0D6B0
:100B8C00E4CEFBE4CDFAE4CCF9A88222B800C1B9DA
:100B9C000059BA002DEC8BF084CFCECDFCE5F0CB18
:100BAC00F97818EF2FFFEE33FEED33FDEC33FCEB51
:100BBC0033FB10D703994004EB99FB0FD8E5E4F90C
:100BCC00FA227818EF2FFFEE33FEED33FDEC33FCF9
:100BDC00C933C910D7059BE99A4007EC9BFCE99AED
:100BEC00F90FD8E0E4C9FAE4CCFB2275F010EF2F32
:100BFC00FFEE33FEED33FDCC33CCC833C810D70732
:100C0C009BEC9AE899400AED9BFDEC9AFCE899F86C
:0E0C1C000FD5F0DAE4CDFBE4CCFAE4C8F922FF
:100C2A00EB9FF5F0EA9E42F0E99D42F0E89C45F020
:010C3A002297
:100C3B00E8600FECC313FCED13FDEE13FEEF13FF97
:030C4B00D8F122BB
:100C4E00D083D082F8E4937012740193700DA3A335
:100C5E0093F8740193F5828883E473740293686049
:060C6E00EFA3A3A380DF49
:10080000E546243AF8E60546227837301002783A71
:10081000E475F001120CCC020C742009EB7F2ED28F
:10082000098018EF540F2490D43440D4FF300D0BBE
:10083000EF24BFB41A0050032461FFE5476002159E
:1008400047054AE54A7002054930100D7837E475CE
:10085000F001120CCCEF020CBA0210037403D21098
:100860008003E4C210F5468B378A388939E4F547AE
:10087000F549F54AE54760077F2012083B80F5758A
:1008800048FFC20AC209C20BC20CC20EC20FC2117B
:10089000120809FF700D3010057F0012084CAF4A96
:1008A000AE4922B4255FC2D5C20D120809FF24D07B
:1008B000B40A00501A75F00A784730D50508B6FF1B
:1008C0000106C6A426F620D5047002D20C80D924D5
:1008D000CFB41A00EF5004C2E5D20D020A4CD20A7E
:1008E00080C6D20980C0D20B80BCD2D580BAD20ECD
:1008F00080B47F2012083B200B077401B5470040ED
:10090000F1120800FF12083B020874D211D20F80C6
:1009100095120800FB120800FA120800F94A4B7001
:1009200006791D7A0B7BFF200B2EE547602A7E009F
:100930008E82758300120C8D60060EEE654870F095
:10094000C2D5EBC0E0EAC0E0E9C0E0EE120A93D005
:10095000E0F9D0E0FAD0E0FB120C74FF60AAEBC023
:10096000E0EAC0E0E9C0E012083BD0E02401F9D0A1
:10097000E03400FAD0E0FBE5480460DCD548D980DB
:10098000877BFF7A0A798FD20B809C79108002795D
:1009900008C20FC2118008D2D5790A8004790AC230
:1009A000D5E548047002F548E4FAFDFEFF120800A0
:1009B000FC7B08200A13120800FD7B1030090A1284
:1009C0000800FE120800FF7B20EC3382D592D55040
:1009D00013C3E43009069FFFE49EFEE4200A039D52
:1009E000FDE49CFCE4CBF8C20AEC700CCFCECDCC7D
:1009F000E824F8F870F38017C3EF33FFEE33FEED11
:100A000033FDEC33FCEB33FB994002FB0FD8E9EBF1
:100A1000300A05F8D0E0C448B20AC0E00AEC4D4EF6
:100A20004F78207B0070C2EAB5480040BCC0E0129D
:100A30000A95D0F0D0E0200A04C4C0E0C4B20AC0D5
:100A4000F0120824D0F0D5F0EB020874120C4E0915
:100A50001153098B5808E24C08DE42098F4F099761
:0F0A60004409974908F743099D550981460981C3
:100A6F00450981470B3D5008E62D08EA2E090D2B4D
:100A7F0008EE23090B200B262A08A64800000905BB
:100A8F003F3F3F00790AA2D5200C14300E09B91050
:100A9F00020404B9080104A2D5200F02500104205A
:100AAF000B68920BB547005034C0E07F20300C1913
:100ABF007F30A20B720F720E500F120AECC20BC2D4
:100ACF000FC20EC2117F30800F300E03E9C0E0124B
:100ADF00083B300E03D0E0F9D0E0B547CC300E170D
:100AEF007F30B9100C12083B7F58300D077F78808C
:100AFF0003B9080312083B300B057F2D02083B7F1B
:100B0F00202011F87F2B200FF322920B80CF286E1D
:100B1F00756C6C2900D20A120800300AF8C20A78E4
:100B2F004730D50108F60208A62D50434958120840
:100B3F00002403B405004001E4900B389312082CF5
:0D0B4F00743A12082CD20C75470402098B71
:100C7400BB010689828A83E0225002E722BBFE027E
:090C8400E32289828A83E49322B1
:100C8D00BB010CE58229F582E5833AF583E022501C
:100C9D0006E92582F8E622BBFE06E92582F8E22266
:0D0CAD00E58229F582E5833AF583E4932280
:100CBA00BB010689828A83F0225002F722BBFE0119
:020CCA00F32213
:100CCC00FAE6FB0808E6F925F0F618E6CA3AF62229
:10100300EFB40A07740D12100E740A309811A899E0
:10101300B8130CC2983098FDA899C298B811F6304D
:0710230099FDC299F5992225
:00000001FF
