:100EFF0014210000000000000000000000000000AE
:100F0F00000000000000023C000004370000000059
:0B0F1F0002350000013B00023E24A64A
:1009A500E4F509FF7EC27D01FC120C1DD2F953E866
:1009B500F043E80143AC0153ADFEE4F5F643F6021E
:1009C50043E101120E8CE4F53CF53DF509C3E5095B
:1009D500940A748094805041C2EFD2EE30EFFDAF9F
:1009E500C3753C008F3DE53DC4F8540FC868F53D1F
:1009F500E53CC454F048F53CE5C2540F423DE509D9
:100A050025E02421F8A63C08A63D7F027E007D0056
:100A15007C00120DBA050980B47B007A0079217D2E
:100A25000A120E50E4FCFDE53A2FF53AE5393EF59C
:100A350039ED3538F538EC3537F537053BC3E53B4A
:100A450094327480948050030209CB7F147E001287
:100A55000DBAE4F53BAE39AF3AFC7D321208008E93
:0F0A6500358F36E4F53AF539F538F5370209CB18
:020E50008D0A09
:100E5200E4FDFCF50BF50CC3ED950A7480F86C9873
:100E62005023ED25E0FFEC338F82F583120855FF06
:100E7200AEF0D3950CEE950B40048E0B8F0C0DBD8E
:090E820000010C80D2AE0BAF0C94
:010E8B002244
:100E8C0053B3F753B4F753B3EF53B4EFD294D293A5
:100E9C00A2AF920075C7AA75C75575910143B240B0
:100EAC0075C7AA75C755E4F591A20092AF439B0193
:0A0EBC00D2AF75C115D2C6D2C22212
:03003300020B209D
:100B2000C0E0C0F0C083C082C0D075D000C000C09B
:100B300004C005C006C007AFBDEF12097F0B5C0003
:100B40000B60600B64680B68880B6CA00B70A80BC3
:100B500093B80B97C00B9BC800000B9DD2C4803D7F
:100B6000D2C28039C28280FED2C28031D2C2802DF0
:100B7000AE35AF367C007D641208008FBCC2C33036
:100B8000C3FDAE35AF367C007D641208008DBCD24B
:100B9000C2800AD2C28006D2C28002D2C2C2C3D0F0
:100BA00007D006D005D004D000D0D0D082D083D0DA
:040BB000F0D0E0326F
:100EC60053B1BF53B2BF53B17F53B27F75985043EE
:100ED6008920438780438E1053C4DFAB07AA06A937
:100EE60005A8047F407E427D0F7C001208C9EF04EE
:090EF600F404F58DD28ED299228C
:100BB4008F118E108D0F8C0E53B1BF53B2BF53B132
:100BC4007F53B27F75985043878053C4F843C42041
:100BD400AB11AA10A90FA80E7F407E427D0F7C00A6
:100BE4001208C9C374FF9FFF74FF9EFEE49DFDE4D9
:100BF4009CFC780812096C8FC6AB11AA10A90FA827
:100C04000E7F407E427D0F7C001208C9C374FF9F93
:090C1400FF8FC543C408D29922E8
:070F2B003098FDAF99C29858
:010F3200229C
:080F3300C2998F993099FD224B
:100C1D008F0D8E0C8D0B8C0A53B1FB53B2FB53B35E
:100C2D00BF53B4BF75F85075C40853C4DFAB0DAADC
:100C3D000CA90BA80A7F407E427D0F7C001208C9CB
:100C4D00C374FF9FFF74FF9EFEE49DFDE49CFC7842
:100C5D000812096C8FC6AB0DAA0CA90BA80A7F4010
:100C6D007E427D0F7C001208C9C374FF9FFF8FC5A4
:040C7D0043C4082242
:070F3B0030F8FDAF9AC2F887
:010F4200228C
:080F4300C2F98F9A30F9FD227A
:100D6F008F158E148D138C12538EF7438901D28CED
:100D7F00E4FFFEFDFCAB15AA14A913A812C31209B8
:100D8F005B6025758A7E758CFF308DFDC28DE515F4
:100D9F0024FFF515E51434FFF514E51334FFF513AF
:0B0DAF00E51234FFF51280C8C28C2250
:100DBA008F0D8E0C8D0B8C0A538EF7438901D28CC2
:100DCA00E4FFFEFDFCAB0DAA0CA90BA80AC312098D
:100DDA005B6025758ACA758CFA308DFDC28DE50D6A
:100DEA0024FFF50DE50C34FFF50CE50B34FFF50B8C
:0B0DFA00E50A34FFF50A80C8C28C2215
:100E05008F198E188D178C16538EEF438910D28E3D
:100E1500E4FFFEFDFCAB19AA18A917A816C3120911
:100E25005B6025758BEA758DCB308FFDC28FE5191B
:100E350024FFF519E51834FFF518E51734FFF51704
:0B0E4500E51634FFF51680C8C28E22AF
:100D21008F1D8E1C8D1B8C1A53C9BF53C9DF43C93C
:100D310010D2CAE4FFFEFDFCAB1DAA1CA91BA81A18
:100D4100C312095B602575CC3075CDF830CFFDC27B
:100D5100CFE51D24FFF51DE51C34FFF51CE51B3413
:0E0D6100FFF51BE51A34FFF51A80C8C2CA223E
:100C81008F438E428D418C4075C40743C408E4FFF5
:100C9100FEFDFCAB43AA42A941A840C312095B6017
:100CA1002B75C52C75C6CFE5C45410641070F8536C
:100CB100C4EFE54324FFF543E54234FFF542E54146
:100CC10034FFF541E54034FFF54080C253C4F722BB
:100CD1008F478E468D458C4475C40743C408E4FF95
:100CE100FEFDFCAB47AA46A945A844C312095B60B7
:100CF1002B75C5D875C6FFE5C45410641070F85340
:100D0100C4EFE54724FFF547E54634FFF546E545E1
:100D110034FFF545E54434FFF54480C253C4F7225E
:03000000020A747D
:100A740075C7AA75C75575FD5A75C7AA75C7557543
:100A8400FDA5787FE4F6D8FD9000007FFF7E03E4A7
:0C0A9400F0A3DFFCDEFA758180020ADBB3
:100AA0000209A5E493A3F8E493A34003F68001F2BE
:100AB00008DFF48029E493A3F85407240CC8C33357
:100AC000C4540F4420C8834004F456800146F6DF26
:100AD000E4800B0102040810204080900EFFE47EA9
:100AE000019360BCA3FF543F30E509541FFEE4931B
:100AF000A360010ECF54C025E060A840B8E493A3E2
:100B0000FAE493A3F8E493A3C8C582C8CAC583CA0C
:100B1000F0A3C8C582C8CAC583CADFE9DEE780BEC4
:010F2A0000C6
:10080000BC000BBE0029EF8DF084FFADF022E4CCDC
:10081000F875F008EF2FFFEE33FEEC33FCEE9DECA5
:10082000984005FCEE9DFE0FD5F0E9E4CEFD22EDEB
:10083000F8F5F0EE8420D21CFEADF075F008EF2F35
:10084000FFED33FD4007985006D5F0F222C398FD26
:050850000FD5F0EA22C3
:10085500BB0110E58229F582E5833AF583E0F5F0E1
:10086500A3E0225009E92582F886F008E622BBFEBE
:100875000AE92582F8E2F5F008E222E5832AF58304
:08088500E993F5F0A3E99322C9
:10088D0075F008758200EF2FFFEE33FECD33CDCC22
:10089D0033CCC58233C5829BED9AEC99E5829840A5
:1008AD000CF582EE9BFEED9AFDEC99FC0FD5F0D682
:1008BD00E4CEFBE4CDFAE4CCF9A88222B800C1B9AC
:1008CD000059BA002DEC8BF084CFCECDFCE5F0CBEA
:1008DD00F97818EF2FFFEE33FEED33FDEC33FCEB23
:1008ED0033FB10D703994004EB99FB0FD8E5E4F9DE
:1008FD00FA227818EF2FFFEE33FEED33FDEC33FCCB
:10090D00C933C910D7059BE99A4007EC9BFCE99ABE
:10091D00F90FD8E0E4C9FAE4CCFB2275F010EF2F03
:10092D00FFEE33FEED33FDCC33CCC833C810D70703
:10093D009BEC9AE899400AED9BFDEC9AFCE899F83E
:0E094D000FD5F0DAE4CDFBE4CCFAE4C8F922D1
:10095B00EB9FF5F0EA9E42F0E99D42F0E89C45F0F2
:01096B002269
:10096C00E8600FECC313FCED13FDEE13FEEF13FF69
:03097C00D8F1228D
:10097F00D083D082F8E4937012740193700DA3A307
:10098F0093F8740193F5828883E47374029368601B
:06099F00EFA3A3A380DF1B
:00000001FF
