:060A3D0075BE0DD2C622B9
:020A430080FE33
:020800008F085F
:10080200D2C5C2C330C3FDAFBDEF64086003120A94
:1008120043C2C575BCA4C2C330C3FDAFBDEF6418EB
:100822006003120A43E4F5BCC2C330C3FDAFBDEF9F
:1008320064286003120A43E4F5BCC2C330C3FDAFAF
:10084200BDEF64286003120A43E4F50CF50BF50AC8
:10085200F509E47F20FEFDFCAB0CAA0BA90AA8094E
:10086200C3120A2C502C8508BCC2C330C3FDAFBDD5
:10087200EF64286003120A436308FFE50C2401F5C4
:100882000CE4350BF50BE4350AF50AE43509F509F4
:1008920080C0D2C4C2C3D2C5C2C330C3FDAFBDEF94
:1008A20064086003120A43C2C575BCA4C2C330C344
:1008B200FDAFBDEF641870DAD2C4C2C320C4FDD24A
:1008C200C5C2C330C3FDAFBDEF64086003120A4363
:1008D20075BCA4C2C5C2C330C3FDAFBDEF6418600E
:1008E20003120A43E4F5BCC2C330C3FDAFBDEF64DB
:1008F200286003120A43E4F5BCC2C330C3FDAFBD96
:10090200EF64286003120A43D2C5C2C330C3FDAFED
:10091200BDEF64106003120A43C2C575BCA5C2C311
:1009220030C3FDAFBDEF64406003120A43E4F50C2F
:10093200F50BF50AF509E47F1FFEFDFCAB0CAA0BD3
:10094200A90AA809C3120A2C5034D2C2C2C330C3A6
:10095200FDAFBDEF64506003120A43E5BC65086059
:1009620003120A436308FFE50C2401F50CE4350B7E
:10097200F50BE4350AF50AE43509F50980B8C2C277
:10098200C2C330C3FDAFBDEF64586003120A43D245
:06099200C4C2C320C4FD35
:01099800223C
:100A1000E4F5B1F5B2F5B3F5B4F5ACF5AD120A3DB8
:0C0A20007F55120800E4F580F5B080FE60
:100999008F108E0F8D0E8C0D538EF7438901D28CDB
:1009A900E4FFFEFDFCAB10AA0FA90EA80DC3120AA5
:1009B9002C6025758ACB758CFA308DFDC28DE510BA
:1009C90024FFF510E50F34FFF50FE50E34FFF50EA2
:0B09D900E50D34FFF50D80C8C28C2234
:030000000209E40E
:1009E40075C7AA75C75575FD5A75C7AA75C75575D4
:1009F400FDA5787FE4F6D8FD9000007FFF7E03E438
:0C0A0400F0A3DFFCDEFA758120020A106E
:100A2C00EB9FF5F0EA9E42F0E99D42F0E89C45F020
:010A3C002297
:00000001FF
