:080DFA003099FDC2998F992286
:0E0DEC000A2048656C6C6F20776F726C640093
:100DC8007F007EC27D017C00120CDCD2997BFF7A09
:100DD8000D79EC1208627F2C7E017D007C00120DDB
:040DE8005180EA222A
:100D51008F0C8E0B8D0A8C09538EF7438901D28C2F
:100D6100E4FFFEFDFCAB0CAA0BA90AA809C3120CF7
:100D71002A6025758ACB758CFA308DFDC28D74FF82
:100D8100250CF50CE50B34FFF50BE50A34FFF50AEC
:0B0D9100E50934FFF50980C8C28C2280
:100CDC008F0C8E0B8D0A8C0953B1BF53B2BF43B12D
:100CEC008053B27F75985043878053C4F843C42017
:100CFC00AB0CAA0BA90AA8097F407E427D0F7C0091
:100D0C00120B98C374FF9FFF74FF9EFEE49DFDE4DD
:100D1C009CFC7808120C3B8FC6AB0CAA0BA90AA83A
:100D2C00097F407E427D0F7C00120B98C374FF9F9D
:100D3C00FF74FF9EFEE49DFDE49CFCEFE48FC54335
:050D4C00C408D2992249
:070E02003098FDAF99C29882
:010E090022C6
:03000000020D9C52
:100D9C0075C7AA75C75575FD5A75C7AA75C7557518
:100DAC00FDA5787FE4F6D8FD9000007FFF7E03E47C
:0C0DBC00F0A3DFFCDEFA758180020DC898
:100B5C0075F008758200EF2FFFEE33FECD33CDCC50
:100B6C0033CCC58233C5829BED9AEC99E5829840D3
:100B7C000CF582EE9BFEED9AFDEC99FC0FD5F0D6B0
:100B8C00E4CEFBE4CDFAE4CCF9A88222B800C1B9DA
:100B9C000059BA002DEC8BF084CFCECDFCE5F0CB18
:100BAC00F97818EF2FFFEE33FEED33FDEC33FCEB51
:100BBC0033FB10D703994004EB99FB0FD8E5E4F90C
:100BCC00FA227818EF2FFFEE33FEED33FDEC33FCF9
:100BDC00C933C910D7059BE99A4007EC9BFCE99AED
:100BEC00F90FD8E0E4C9FAE4CCFB2275F010EF2F32
:100BFC00FFEE33FEED33FDCC33CCC833C810D70732
:100C0C009BEC9AE899400AED9BFDEC9AFCE899F86C
:0E0C1C000FD5F0DAE4CDFBE4CCFAE4C8F922FF
:100C2A00EB9FF5F0EA9E42F0E99D42F0E89C45F020
:010C3A002297
:100C3B00E8600FECC313FCED13FDEE13FEEF13FF97
:030C4B00D8F122BB
:10080000E518240CF8E60518227809300702780C60
:10081000E475F001120CA6020C4E2000EB7F2ED2E4
:10082000008018EF540F2490D43440D4FF30040BD0
:10083000EF24BFB41A0050032461FFE519600215CC
:1008400019051CE51C7002051B30070D7809E475BD
:10085000F001120CA6EF020C94020DFA7403D207F9
:100860008003E4C207F5188B098A0A890BE4F5199D
:10087000F51BF51CE51960077F2012083B80F57514
:100880001AFFC201C200C202C203C205C206C208E8
:10089000120809FF700D3007057F0012084CAF1CCD
:1008A000AE1B22B4255FC2D5C204120809FF24D0B2
:1008B000B40A00501A75F00A781930D50508B6FF49
:1008C0000106C6A426F620D5047002D20380D924DE
:1008D000CFB41A00EF5004C2E5D204020A4CD20190
:1008E00080C6D20080C0D20280BCD2D580BAD205E8
:1008F00080B47F2012083B2002077401B519004024
:10090000F1120800FF12083B020874D208D20680D8
:1009100095120800FB120800FA120800F94A4B7001
:1009200006791D7A0B7BFF20022EE519602A7E00D6
:100930008E82758300120C6760060EEE651A70F0E9
:10094000C2D5EBC0E0EAC0E0E9C0E0EE120A93D005
:10095000E0F9D0E0FAD0E0FB120C4EFF60AAEBC049
:10096000E0EAC0E0E9C0E012083BD0E02401F9D0A1
:10097000E03400FAD0E0FBE51A0460DCD51AD98037
:10098000877BFF7A0A798FD202809C791080027966
:1009900008C206C2088008D2D5790A8004790AC242
:1009A000D5E51A047002F51AE4FAFDFEFF120800FC
:1009B000FC7B08200113120800FD7B1030000A1296
:1009C0000800FE120800FF7B20EC3382D592D55040
:1009D00013C3E43000069FFFE49EFEE42001039D64
:1009E000FDE49CFCE4CBF8C201EC700CCFCECDCC86
:1009F000E824F8F870F38017C3EF33FFEE33FEED11
:100A000033FDEC33FCEB33FB994002FB0FD8E9EBF1
:100A1000300105F8D0E0C448B201C0E00AEC4D4E08
:100A20004F78207B0070C2EAB51A0040BCC0E012CB
:100A30000A95D0F0D0E0200104C4C0E0C4B201C0E7
:100A4000F0120824D0F0D5F0EB020874120CB609AD
:100A50001153098B5808E24C08DE42098F4F099761
:0F0A60004409974908F743099D550981460981C3
:100A6F00450981470B3D5008E62D08EA2E090D2B4D
:100A7F0008EE23090B200B262A08A64800000905BB
:100A8F003F3F3F00790AA2D5200314300509B91062
:100A9F00020404B9080104A2D52006025001042063
:100AAF0002689202B519005034C0E07F203003195C
:100ABF007F30A20272067205500F120AECC202C2F8
:100ACF0006C205C2087F30800F300503E9C0E0126F
:100ADF00083B300503D0E0F9D0E0B519CC3005174D
:100AEF007F30B9100C12083B7F583004077F788095
:100AFF0003B9080312083B3002057F2D02083B7F24
:100B0F00202008F87F2B2006F322920280CF286E38
:100B1F00756C6C2900D2011208003001F8C20178FF
:100B2F001930D50108F60208A62D5043495812086E
:100B3F00002403B405004001E4900B389312082CF5
:0D0B4F00743A12082CD20375190402098BA8
:100C4E00BB010689828A83E0225002E722BBFE02A4
:090C5E00E32289828A83E49322D7
:100C6700BB010CE58229F582E5833AF583E0225042
:100C770006E92582F8E622BBFE06E92582F8E2228C
:0D0C8700E58229F582E5833AF583E49322A6
:100C9400BB010689828A83F0225002F722BBFE013F
:020CA400F32239
:100CA600FAE6FB0808E6F925F0F618E6CA3AF6224F
:100CB600D083D082F8E4937012740193700DA3A3CD
:100CC60093F8740193F5828883E4737402936860E1
:060CD600EFA3A3A380DFE1
:00000001FF
