:0411AA000A256400AE
:0311AE00014400F9
:03003300020CDCE0
:100CDC00C0E0C0F0C083C082C0D075D000C000C0DE
:100CEC0001C002C003C004C005C006C007AFBDEF01
:100CFC00120C4E0D21000D6A600D25680D29800D1A
:100D0C004C880D6AA00D5AA80D5CB80D6AC00D6A0E
:100D1C00C800000D6CD2C48047C28280FE7BFF7A73
:100D2C001179AA85BC4812086274222544F8A6BC25
:100D3C000544E54464227004C2C28024D2C28020DF
:100D4C0074222544F8A6BC754400D2C280128000DF
:100D5C0074222544F8E6F5BC0544D2C28002D2C206
:100D6C00C2C3D007D006D005D004D003D002D00126
:0D0D7C00D000D0D0D082D083D0F0D0E032B3
:1010D10053B3F753B4F753B3EF53B4EFD294D2935E
:1010E100A2AF920975C7AA75C75575910143B24060
:1010F10075C7AA75C755E4F591A20992AF439B0143
:0A110100D2AF75C104D2C6D2C222DB
:10116B007F007EC27D017C00120E35D299E4F5B171
:0F117B00F5B2F5B3F5B4F5ACF5AD1210D180FEB9
:10110B0053B1BF53B2BF53B17F53B27F75985043A6
:10111B008920438780438E1053C4DFAB07AA06A9EF
:10112B0005A8047F407E427D0F7C00120B98EF04D4
:09113B00F404F58DD28ED2992244
:100E35008F5C8E5B8D5A8C5953B1BF53B2BF53B182
:100E45007F53B27F75985043878053C4F843C420BD
:100E5500AB5CAA5BA95AA8597F407E427D0F7C00F6
:100E6500120B98C374FF9FFF74FF9EFEE49DFDE483
:100E75009CFC7808120C3B8FC6AB5CAA5BA95AA8F0
:100E8500597F407E427D0F7C00120B98C374FF9FF3
:090E9500FF8FC543C408D2992265
:07118A003098FDAF99C298F7
:01119100223B
:08119200C2998F993099FD22EA
:100E9E008F0C8E0B8D0A8C0953B1FB53B2FB53B3DF
:100EAE00BF53B4BF75F85075C40853C4DFAB0CAA5A
:100EBE000BA90AA8097F407E427D0F7C00120B9879
:100ECE00C374FF9FFF74FF9EFEE49DFDE49CFC78BF
:100EDE0008120C3B8FC6AB0CAA0BA90AA8097F40BF
:100EEE007E427D0F7C00120B98C374FF9FFF8FC54F
:040EFE0043C40822BF
:07119A0030F8FDAF9AC2F826
:0111A100222B
:0811A200C2F98F9A30F9FD2219
:100FF0008F108E0F8D0E8C0D538EF7438901D28C7E
:10100000E4FFFEFDFCAB10AA0FA90EA80DC3120C45
:101010002A6025758A7E758CFF308DFDC28DE510A6
:1010200024FFF510E50F34FFF50FE50E34FFF50E44
:0B103000E50D34FFF50D80C8C28C22D6
:10103B008F148E138D128C11538EF7438901D28C22
:10104B00E4FFFEFDFCAB14AA13A912A811C3120CEA
:10105B002A6025758ACA758CFA308DFDC28DE51410
:10106B0024FFF514E51334FFF513E51234FFF512E5
:0B107B00E51134FFF51180C8C28C2283
:101086008F188E178D168C15538EEF438910D28EBE
:10109600E4FFFEFDFCAB18AA17A916A815C3120C8F
:1010A6002A6025758BEA758DCB308FFDC28FE518CA
:1010B60024FFF518E51734FFF517E51634FFF51686
:0B10C600E51534FFF51580C8C28E222E
:100FA2008F1C8E1B8D1A8C1953C9BF53C9DF43C9BD
:100FB20010D2CAE4FFFEFDFCAB1CAA1BA91AA81999
:100FC200C3120C2A602575CC3075CDF830CFFDC226
:100FD200CFE51C24FFF51CE51B34FFF51BE51A3495
:0E0FE200FFF51AE51934FFF51980C8C2CA22BE
:100F02008F608E5F8D5E8C5D75C40743C408E4FFFD
:100F1200FEFDFCAB60AA5FA95EA85DC3120C2A604D
:100F22002B75C52C75C6CFE5C45410641070F853E8
:100F3200C4EFE56024FFF560E55F34FFF55FE55E31
:100F420034FFF55EE55D34FFF55D80C253C4F722E0
:100F52008F648E638D628C6175C40743C408E4FF9D
:100F6200FEFDFCAB64AA63A962A861C3120C2A60ED
:100F72002B75C5D875C6FFE5C45410641070F853BC
:100F8200C4EFE56424FFF564E56334FFF563E562CD
:100F920034FFF562E56134FFF56180C253C4F72284
:03000000020D8965
:100D890075C7AA75C75575FD5A75C7AA75C755752B
:100D9900FDA5787FE4F6D8FD9000007FFF7E03E48F
:0C0DA900F0A3DFFCDEFA758180020DF083
:100DB50002116BE493A3F8E493A34003F68001F2D8
:100DC50008DFF48029E493A3F85407240CC8C3333F
:100DD500C4540F4420C8834004F456800146F6DF0E
:100DE500E4800B01020408102040809011AEE47EDF
:100DF500019360BCA3FF543F30E509541FFEE49303
:100E0500A360010ECF54C025E060A840B8E493A3C9
:100E1500FAE493A3F8E493A3C8C582C8CAC583CAF4
:100E2500F0A3C8C582C8CAC583CADFE9DEE780BEAC
:0111B100003D
:100B5C0075F008758200EF2FFFEE33FECD33CDCC50
:100B6C0033CCC58233C5829BED9AEC99E5829840D3
:100B7C000CF582EE9BFEED9AFDEC99FC0FD5F0D6B0
:100B8C00E4CEFBE4CDFAE4CCF9A88222B800C1B9DA
:100B9C000059BA002DEC8BF084CFCECDFCE5F0CB18
:100BAC00F97818EF2FFFEE33FEED33FDEC33FCEB51
:100BBC0033FB10D703994004EB99FB0FD8E5E4F90C
:100BCC00FA227818EF2FFFEE33FEED33FDEC33FCF9
:100BDC00C933C910D7059BE99A4007EC9BFCE99AED
:100BEC00F90FD8E0E4C9FAE4CCFB2275F010EF2F32
:100BFC00FFEE33FEED33FDCC33CCC833C810D70732
:100C0C009BEC9AE899400AED9BFDEC9AFCE899F86C
:0E0C1C000FD5F0DAE4CDFBE4CCFAE4C8F922FF
:100C2A00EB9FF5F0EA9E42F0E99D42F0E89C45F020
:010C3A002297
:100C3B00E8600FECC313FCED13FDEE13FEEF13FF97
:030C4B00D8F122BB
:100C4E00D083D082F8E4937012740193700DA3A335
:100C5E0093F8740193F5828883E473740293686049
:060C6E00EFA3A3A380DF49
:10080000E5542448F8E60554227845300702784834
:10081000E475F001120CCC020C742000EB7F2ED298
:10082000008018EF540F2490D43440D4FF30040BD0
:10083000EF24BFB41A0050032461FFE55560021590
:10084000550558E5587002055730070D7845E47591
:10085000F001120CCCEF020CBA0211447403D2075F
:100860008003E4C207F5548B458A468947E4F55571
:10087000F557F558E55560077F2012083B80F57560
:1008800056FFC201C200C202C203C205C206C208AC
:10089000120809FF700D3007057F0012084CAF5891
:1008A000AE5722B4255FC2D5C204120809FF24D076
:1008B000B40A00501A75F00A785530D50508B6FF0D
:1008C0000106C6A426F620D5047002D20380D924DE
:1008D000CFB41A00EF5004C2E5D204020A4CD20190
:1008E00080C6D20080C0D20280BCD2D580BAD205E8
:1008F00080B47F2012083B2002077401B5550040E8
:10090000F1120800FF12083B020874D208D20680D8
:1009100095120800FB120800FA120800F94A4B7001
:1009200006791D7A0B7BFF20022EE555602A7E009A
:100930008E82758300120C8D60060EEE655670F087
:10094000C2D5EBC0E0EAC0E0E9C0E0EE120A93D005
:10095000E0F9D0E0FAD0E0FB120C74FF60AAEBC023
:10096000E0EAC0E0E9C0E012083BD0E02401F9D0A1
:10097000E03400FAD0E0FBE5560460DCD556D980BF
:10098000877BFF7A0A798FD202809C791080027966
:1009900008C206C2088008D2D5790A8004790AC242
:1009A000D5E556047002F556E4FAFDFEFF12080084
:1009B000FC7B08200113120800FD7B1030000A1296
:1009C0000800FE120800FF7B20EC3382D592D55040
:1009D00013C3E43000069FFFE49EFEE42001039D64
:1009E000FDE49CFCE4CBF8C201EC700CCFCECDCC86
:1009F000E824F8F870F38017C3EF33FFEE33FEED11
:100A000033FDEC33FCEB33FB994002FB0FD8E9EBF1
:100A1000300105F8D0E0C448B201C0E00AEC4D4E08
:100A20004F78207B0070C2EAB5560040BCC0E0128F
:100A30000A95D0F0D0E0200104C4C0E0C4B201C0E7
:100A4000F0120824D0F0D5F0EB020874120C4E0915
:100A50001153098B5808E24C08DE42098F4F099761
:0F0A60004409974908F743099D550981460981C3
:100A6F00450981470B3D5008E62D08EA2E090D2B4D
:100A7F0008EE23090B200B262A08A64800000905BB
:100A8F003F3F3F00790AA2D5200314300509B91062
:100A9F00020404B9080104A2D52006025001042063
:100AAF0002689202B555005034C0E07F2030031920
:100ABF007F30A20272067205500F120AECC202C2F8
:100ACF0006C205C2087F30800F300503E9C0E0126F
:100ADF00083B300503D0E0F9D0E0B555CC30051711
:100AEF007F30B9100C12083B7F583004077F788095
:100AFF0003B9080312083B3002057F2D02083B7F24
:100B0F00202008F87F2B2006F322920280CF286E38
:100B1F00756C6C2900D2011208003001F8C20178FF
:100B2F005530D50108F60208A62D50434958120832
:100B3F00002403B405004001E4900B389312082CF5
:0D0B4F00743A12082CD20375550402098B6C
:100C7400BB010689828A83E0225002E722BBFE027E
:090C8400E32289828A83E49322B1
:100C8D00BB010CE58229F582E5833AF583E022501C
:100C9D0006E92582F8E622BBFE06E92582F8E22266
:0D0CAD00E58229F582E5833AF583E4932280
:100CBA00BB010689828A83F0225002F722BBFE0119
:020CCA00F32213
:100CCC00FAE6FB0808E6F925F0F618E6CA3AF62229
:10114400EFB40A07740D12114F740A309811A8995C
:10115400B8130CC2983098FDA899C298B811F6300B
:0711640099FDC299F59922E3
:00000001FF
