:030B51000143005D
:030033000209C4FB
:1009C400C0E0C083C082C0D075D000C000C007AFF3
:1009D400BDEF1208F209FB000A386009FF680A0338
:1009E400800A1A880A38A00A28A80A2AB80A38C02D
:1009F4000A38C800000A3AD2C4803BC28280FE741E
:100A0400212543F8A6BC0543E54364227004C2C211
:100A14008024D2C2802074212543F8A6BC754300EB
:100A2400D2C28012800074212543F8E6F5BC054348
:100A3400D2C28002D2C2C2C3D007D000D0D0D082EA
:050A4400D083D0E03278
:100AFD0053B3F753B4F753B3EF53B4EFD294D29338
:100B0D00A2AF920075C7AA75C75575910143B24042
:100B1D0075C7AA75C755E4F591A20092AF439B0125
:0A0B2D00D2AF75C1A4D2C6D2C22215
:100B3700E4F5B1F5B2F5B3F5B4F5ACF5AD120AFDD0
:020B470080FE2E
:100A49008F0B8E0A8D098C0853B1BF53B2BF43B1C6
:100A59008053B27F75985043878053C4F843C420AC
:100A6900AB0BAA0AA909A8087F407E427D0F7C002A
:100A790012083CC374FF9FFF74FF9EFEE49DFDE4D2
:100A89009CFC78081208DF8FC6AB0BAA0AA909A833
:100A9900087F407E427D0F7C0012083CC374FF9F93
:090AA900FF8FC543C408D2992255
:070B49003098FDAF99C2983E
:010B50002282
:100AB2008F0F8E0E8D0D8C0C538EF7438901D28CC5
:100AC200E4FFFEFDFCAB0FAA0EA90DA80CC3120891
:100AD200CE6025758ACB758CFA308DFDC28DE50FFF
:100AE20024FFF50FE50E34FFF50EE50D34FFF50D8D
:0B0AF200E50C34FFF50C80C8C28C221C
:03000000020918DA
:1009180075C7AA75C75575FD5A75C7AA75C75575A0
:10092800FDA5787FE4F6D8FD9000007FFF7E03E404
:0C093800F0A3DFFCDEFA75814302097FAA
:10094400020B37E493A3F8E493A34003F68001F287
:1009540008DFF48029E493A3F85407240CC8C333B4
:10096400C4540F4420C8834004F456800146F6DF83
:10097400E4800B0102040810204080900B51E47EB7
:10098400019360BCA3FF543F30E509541FFEE49378
:10099400A360010ECF54C025E060A840B8E493A33F
:1009A400FAE493A3F8E493A3C8C582C8CAC583CA6A
:1009B400F0A3C8C582C8CAC583CADFE9DEE780BE22
:010B540000A0
:1008000075F008758200EF2FFFEE33FECD33CDCCAF
:1008100033CCC58233C5829BED9AEC99E582984032
:100820000CF582EE9BFEED9AFDEC99FC0FD5F0D60F
:10083000E4CEFBE4CDFAE4CCF9A88222B800C1B939
:100840000059BA002DEC8BF084CFCECDFCE5F0CB77
:10085000F97818EF2FFFEE33FEED33FDEC33FCEBB0
:1008600033FB10D703994004EB99FB0FD8E5E4F96B
:10087000FA227818EF2FFFEE33FEED33FDEC33FC58
:10088000C933C910D7059BE99A4007EC9BFCE99A4C
:10089000F90FD8E0E4C9FAE4CCFB2275F010EF2F91
:1008A000FFEE33FEED33FDCC33CCC833C810D70791
:1008B0009BEC9AE899400AED9BFDEC9AFCE899F8CC
:0E08C0000FD5F0DAE4CDFBE4CCFAE4C8F9225F
:1008CE00EB9FF5F0EA9E42F0E99D42F0E89C45F080
:0108DE0022F7
:1008DF00E8600FECC313FCED13FDEE13FEEF13FFF7
:0308EF00D8F1221B
:1008F200D083D082F8E4937012740193700DA3A395
:1009020093F8740193F5828883E4737402936860A8
:06091200EFA3A3A380DFA8
:00000001FF
